{
  "contractName": "manufacturer",
  "abi": [
    {
      "inputs": [],
      "stateMutability": "nonpayable",
      "type": "constructor"
    },
    {
      "inputs": [
        {
          "internalType": "address",
          "name": "",
          "type": "address"
        }
      ],
      "name": "isManufacturer",
      "outputs": [
        {
          "internalType": "bool",
          "name": "",
          "type": "bool"
        }
      ],
      "stateMutability": "view",
      "type": "function"
    },
    {
      "inputs": [],
      "name": "manufacturer",
      "outputs": [
        {
          "internalType": "string",
          "name": "name",
          "type": "string"
        },
        {
          "internalType": "string",
          "name": "location",
          "type": "string"
        },
        {
          "internalType": "address",
          "name": "addr",
          "type": "address"
        }
      ],
      "stateMutability": "view",
      "type": "function"
    },
    {
      "inputs": [],
      "name": "owner",
      "outputs": [
        {
          "internalType": "address",
          "name": "",
          "type": "address"
        }
      ],
      "stateMutability": "view",
      "type": "function"
    },
    {
      "inputs": [
        {
          "internalType": "string",
          "name": "_name",
          "type": "string"
        },
        {
          "internalType": "string",
          "name": "_location",
          "type": "string"
        }
      ],
      "name": "editManufacturer",
      "outputs": [],
      "stateMutability": "nonpayable",
      "type": "function"
    },
    {
      "inputs": [],
      "name": "getManufacturer",
      "outputs": [
        {
          "internalType": "string",
          "name": "",
          "type": "string"
        },
        {
          "internalType": "string",
          "name": "",
          "type": "string"
        },
        {
          "internalType": "address",
          "name": "",
          "type": "address"
        }
      ],
      "stateMutability": "view",
      "type": "function"
    }
  ],
  "bytecode": "0x60806040523480156200001157600080fd5b5033600460006101000a81548173ffffffffffffffffffffffffffffffffffffffff021916908373ffffffffffffffffffffffffffffffffffffffff16021790555060405180606001604052806040518060200160405280600081525081526020016040518060200160405280600081525081526020013373ffffffffffffffffffffffffffffffffffffffff1681525060016000820151816000019081620000bb9190620003f5565b506020820151816001019081620000d39190620003f5565b5060408201518160020160006101000a81548173ffffffffffffffffffffffffffffffffffffffff021916908373ffffffffffffffffffffffffffffffffffffffff16021790555090505060016000803373ffffffffffffffffffffffffffffffffffffffff1673ffffffffffffffffffffffffffffffffffffffff16815260200190815260200160002060006101000a81548160ff021916908315150217905550620004dc565b600081519050919050565b7f4e487b7100000000000000000000000000000000000000000000000000000000600052604160045260246000fd5b7f4e487b7100000000000000000000000000000000000000000000000000000000600052602260045260246000fd5b60006002820490506001821680620001fd57607f821691505b602082108103620002135762000212620001b5565b5b50919050565b60008190508160005260206000209050919050565b60006020601f8301049050919050565b600082821b905092915050565b6000600883026200027d7fffffffffffffffffffffffffffffffffffffffffffffffffffffffffffffffff826200023e565b6200028986836200023e565b95508019841693508086168417925050509392505050565b6000819050919050565b6000819050919050565b6000620002d6620002d0620002ca84620002a1565b620002ab565b620002a1565b9050919050565b6000819050919050565b620002f283620002b5565b6200030a6200030182620002dd565b8484546200024b565b825550505050565b600090565b6200032162000312565b6200032e818484620002e7565b505050565b5b8181101562000356576200034a60008262000317565b60018101905062000334565b5050565b601f821115620003a5576200036f8162000219565b6200037a846200022e565b810160208510156200038a578190505b620003a262000399856200022e565b83018262000333565b50505b505050565b600082821c905092915050565b6000620003ca60001984600802620003aa565b1980831691505092915050565b6000620003e58383620003b7565b9150826002028217905092915050565b62000400826200017b565b67ffffffffffffffff8111156200041c576200041b62000186565b5b620004288254620001e4565b620004358282856200035a565b600060209050601f8311600181146200046d576000841562000458578287015190505b620004648582620003d7565b865550620004d4565b601f1984166200047d8662000219565b60005b82811015620004a75784890151825560018201915060208501945060208101905062000480565b86831015620004c75784890151620004c3601f891682620003b7565b8355505b6001600288020188555050505b505050505050565b610cf180620004ec6000396000f3fe608060405234801561001057600080fd5b50600436106100575760003560e01c806304b0cdda1461005c57806317d4a4911461007c57806374754282146100ac5780638da5cb5b146100cc578063f38507b0146100ea575b600080fd5b610064610106565b60405161007393929190610625565b60405180910390f35b610096600480360381019061009191906106aa565b61030d565b6040516100a391906106f2565b60405180910390f35b6100b461032d565b6040516100c393929190610625565b60405180910390f35b6100d4610475565b6040516100e1919061070d565b60405180910390f35b61010460048036038101906100ff919061085d565b61049b565b005b6060806000806000600160020160009054906101000a900473ffffffffffffffffffffffffffffffffffffffff1673ffffffffffffffffffffffffffffffffffffffff1673ffffffffffffffffffffffffffffffffffffffff16815260200190815260200160002060009054906101000a900460ff166101bb576040517f08c379a00000000000000000000000000000000000000000000000000000000081526004016101b290610921565b60405180910390fd5b600160000160018001600160020160009054906101000a900473ffffffffffffffffffffffffffffffffffffffff168280546101f690610970565b80601f016020809104026020016040519081016040528092919081815260200182805461022290610970565b801561026f5780601f106102445761010080835404028352916020019161026f565b820191906000526020600020905b81548152906001019060200180831161025257829003601f168201915b5050505050925081805461028290610970565b80601f01602080910402602001604051908101604052809291908181526020018280546102ae90610970565b80156102fb5780601f106102d0576101008083540402835291602001916102fb565b820191906000526020600020905b8154815290600101906020018083116102de57829003601f168201915b50505050509150925092509250909192565b60006020528060005260406000206000915054906101000a900460ff1681565b600180600001805461033e90610970565b80601f016020809104026020016040519081016040528092919081815260200182805461036a90610970565b80156103b75780601f1061038c576101008083540402835291602001916103b7565b820191906000526020600020905b81548152906001019060200180831161039a57829003601f168201915b5050505050908060010180546103cc90610970565b80601f01602080910402602001604051908101604052809291908181526020018280546103f890610970565b80156104455780601f1061041a57610100808354040283529160200191610445565b820191906000526020600020905b81548152906001019060200180831161042857829003601f168201915b5050505050908060020160009054906101000a900473ffffffffffffffffffffffffffffffffffffffff16905083565b600460009054906101000a900473ffffffffffffffffffffffffffffffffffffffff1681565b600460009054906101000a900473ffffffffffffffffffffffffffffffffffffffff1673ffffffffffffffffffffffffffffffffffffffff163373ffffffffffffffffffffffffffffffffffffffff161461052b576040517f08c379a000000000000000000000000000000000000000000000000000000000815260040161052290610a13565b60405180910390fd5b816001600001908161053d9190610be9565b508060018001908161054f9190610be9565b505050565b600081519050919050565b600082825260208201905092915050565b60005b8381101561058e578082015181840152602081019050610573565b60008484015250505050565b6000601f19601f8301169050919050565b60006105b682610554565b6105c0818561055f565b93506105d0818560208601610570565b6105d98161059a565b840191505092915050565b600073ffffffffffffffffffffffffffffffffffffffff82169050919050565b600061060f826105e4565b9050919050565b61061f81610604565b82525050565b6000606082019050818103600083015261063f81866105ab565b9050818103602083015261065381856105ab565b90506106626040830184610616565b949350505050565b6000604051905090565b600080fd5b600080fd5b61068781610604565b811461069257600080fd5b50565b6000813590506106a48161067e565b92915050565b6000602082840312156106c0576106bf610674565b5b60006106ce84828501610695565b91505092915050565b60008115159050919050565b6106ec816106d7565b82525050565b600060208201905061070760008301846106e3565b92915050565b60006020820190506107226000830184610616565b92915050565b600080fd5b600080fd5b7f4e487b7100000000000000000000000000000000000000000000000000000000600052604160045260246000fd5b61076a8261059a565b810181811067ffffffffffffffff8211171561078957610788610732565b5b80604052505050565b600061079c61066a565b90506107a88282610761565b919050565b600067ffffffffffffffff8211156107c8576107c7610732565b5b6107d18261059a565b9050602081019050919050565b82818337600083830152505050565b60006108006107fb846107ad565b610792565b90508281526020810184848401111561081c5761081b61072d565b5b6108278482856107de565b509392505050565b600082601f83011261084457610843610728565b5b81356108548482602086016107ed565b91505092915050565b6000806040838503121561087457610873610674565b5b600083013567ffffffffffffffff81111561089257610891610679565b5b61089e8582860161082f565b925050602083013567ffffffffffffffff8111156108bf576108be610679565b5b6108cb8582860161082f565b9150509250929050565b7f4d616e75666163747572657220646f6573206e6f742065786973740000000000600082015250565b600061090b601b8361055f565b9150610916826108d5565b602082019050919050565b6000602082019050818103600083015261093a816108fe565b9050919050565b7f4e487b7100000000000000000000000000000000000000000000000000000000600052602260045260246000fd5b6000600282049050600182168061098857607f821691505b60208210810361099b5761099a610941565b5b50919050565b7f4f6e6c79206f776e65722063616e20706572666f726d2074686973206f70657260008201527f6174696f6e000000000000000000000000000000000000000000000000000000602082015250565b60006109fd60258361055f565b9150610a08826109a1565b604082019050919050565b60006020820190508181036000830152610a2c816109f0565b9050919050565b60008190508160005260206000209050919050565b60006020601f8301049050919050565b600082821b905092915050565b600060088302610a957fffffffffffffffffffffffffffffffffffffffffffffffffffffffffffffffff82610a58565b610a9f8683610a58565b95508019841693508086168417925050509392505050565b6000819050919050565b6000819050919050565b6000610ae6610ae1610adc84610ab7565b610ac1565b610ab7565b9050919050565b6000819050919050565b610b0083610acb565b610b14610b0c82610aed565b848454610a65565b825550505050565b600090565b610b29610b1c565b610b34818484610af7565b505050565b5b81811015610b5857610b4d600082610b21565b600181019050610b3a565b5050565b601f821115610b9d57610b6e81610a33565b610b7784610a48565b81016020851015610b86578190505b610b9a610b9285610a48565b830182610b39565b50505b505050565b600082821c905092915050565b6000610bc060001984600802610ba2565b1980831691505092915050565b6000610bd98383610baf565b9150826002028217905092915050565b610bf282610554565b67ffffffffffffffff811115610c0b57610c0a610732565b5b610c158254610970565b610c20828285610b5c565b600060209050601f831160018114610c535760008415610c41578287015190505b610c4b8582610bcd565b865550610cb3565b601f198416610c6186610a33565b60005b82811015610c8957848901518255600182019150602085019450602081019050610c64565b86831015610ca65784890151610ca2601f891682610baf565b8355505b6001600288020188555050505b50505050505056fea264697066735822122063b155cf0c6e8946932a97e5191cc733c7645e774aa339bedf79618e494a0e6d64736f6c63430008130033",
  "immutableReferences": {},
  "source": "// SPDX-License-Identifier: UNLICENSED\r\npragma solidity ^0.8.0;\r\n\r\ncontract manufacturer {\r\n     \r\n    struct Manufacturer {\r\n        string name;\r\n        string location;\r\n        address addr;\r\n    }\r\n\r\n    mapping(address => bool) public isManufacturer;\r\n    Manufacturer public manufacturer;\r\n\r\n    address public owner;\r\n\r\n    constructor() {\r\n        owner = msg.sender;\r\n        manufacturer = Manufacturer(\"\", \"\", msg.sender);\r\n        isManufacturer[msg.sender] = true;\r\n    }\r\n\r\n    modifier onlyOwner() {\r\n        require(msg.sender == owner, \"Only owner can perform this operation\");\r\n        _;\r\n    }\r\n\r\n    function editManufacturer(string memory _name, string memory _location) public onlyOwner {\r\n        manufacturer.name = _name;\r\n        manufacturer.location = _location;\r\n    }\r\n\r\n    function getManufacturer() public view returns (string memory, string memory, address) {\r\n        require(isManufacturer[manufacturer.addr], \"Manufacturer does not exist\");\r\n        return (manufacturer.name, manufacturer.location, manufacturer.addr);\r\n    }\r\n}\r\n",
  "sourcePath": "C:\\Users\\ADhumal\\Desktop\\drizzle\\contracts\\manufacturer.sol",
  "compiler": {
    "name": "solc",
    "version": "0.8.19+commit.7dd6d404.Emscripten.clang"
  },
  "schemaVersion": "3.4.13",
  "updatedAt": "2023-04-17T05:47:32.010Z",
  "devdoc": {
    "kind": "dev",
    "methods": {},
    "version": 1
  },
  "userdoc": {
    "kind": "user",
    "methods": {},
    "version": 1
  }
}